{"abi":[{"type":"constructor","inputs":[],"stateMutability":"nonpayable"},{"type":"receive","stateMutability":"payable"},{"type":"function","name":"addQuiz","inputs":[{"name":"q","type":"tuple","internalType":"struct Quiz.Quiz_item","components":[{"name":"id","type":"uint256","internalType":"uint256"},{"name":"question","type":"string","internalType":"string"},{"name":"answer","type":"string","internalType":"string"},{"name":"min_bet","type":"uint256","internalType":"uint256"},{"name":"max_bet","type":"uint256","internalType":"uint256"}]}],"outputs":[],"stateMutability":"nonpayable"},{"type":"function","name":"betToPlay","inputs":[{"name":"quizId","type":"uint256","internalType":"uint256"}],"outputs":[],"stateMutability":"payable"},{"type":"function","name":"bets","inputs":[{"name":"","type":"uint256","internalType":"uint256"},{"name":"","type":"address","internalType":"address"}],"outputs":[{"name":"","type":"uint256","internalType":"uint256"}],"stateMutability":"view"},{"type":"function","name":"claim","inputs":[],"outputs":[],"stateMutability":"nonpayable"},{"type":"function","name":"getAnswer","inputs":[{"name":"quizId","type":"uint256","internalType":"uint256"}],"outputs":[{"name":"","type":"string","internalType":"string"}],"stateMutability":"view"},{"type":"function","name":"getQuiz","inputs":[{"name":"quizId","type":"uint256","internalType":"uint256"}],"outputs":[{"name":"","type":"tuple","internalType":"struct Quiz.Quiz_item","components":[{"name":"id","type":"uint256","internalType":"uint256"},{"name":"question","type":"string","internalType":"string"},{"name":"answer","type":"string","internalType":"string"},{"name":"min_bet","type":"uint256","internalType":"uint256"},{"name":"max_bet","type":"uint256","internalType":"uint256"}]}],"stateMutability":"view"},{"type":"function","name":"getQuizNum","inputs":[],"outputs":[{"name":"","type":"uint256","internalType":"uint256"}],"stateMutability":"view"},{"type":"function","name":"solveQuiz","inputs":[{"name":"quizId","type":"uint256","internalType":"uint256"},{"name":"ans","type":"string","internalType":"string"}],"outputs":[{"name":"","type":"bool","internalType":"bool"}],"stateMutability":"nonpayable"},{"type":"function","name":"vault_balance","inputs":[],"outputs":[{"name":"","type":"uint256","internalType":"uint256"}],"stateMutability":"view"}],"bytecode":{"object":"0x60806040525f600155348015610013575f5ffd5b506100436040518060a001604052805f815260200160608152602001606081526020015f81526020015f81525090565b60018082526040805180820182526005815264312b313d3f60d81b6020808301919091528085019190915281518083018352928352601960f91b90830152820152670de0b6b3a76400006060820152671bc16d674ec8000060808201526100a9816100af565b506102a9565b336001036100ee5760405162461bcd60e51b815260206004820152600860248201526723b79030bbb0bc9760c11b604482015260640160405180910390fd5b80515f908152602081815260409091208251815590820151829190600182019061011890826101ef565b506040820151600282019061012d90826101ef565b50606082015160038201556080909101516004909101555160019081556002805490910181555f52565b634e487b7160e01b5f52604160045260245ffd5b600181811c9082168061017f57607f821691505b60208210810361019d57634e487b7160e01b5f52602260045260245ffd5b50919050565b601f8211156101ea57805f5260205f20601f840160051c810160208510156101c85750805b601f840160051c820191505b818110156101e7575f81556001016101d4565b50505b505050565b81516001600160401b0381111561020857610208610157565b61021c81610216845461016b565b846101a3565b6020601f82116001811461024e575f83156102375750848201515b5f19600385901b1c1916600184901b1784556101e7565b5f84815260208120601f198516915b8281101561027d578785015182556020948501946001909201910161025d565b508482101561029a57868401515f19600387901b60f8161c191681555b50505050600190811b01905550565b611011806102b65f395ff3fe608060405260043610610087575f3560e01c8063a3f7e09611610057578063a3f7e09614610112578063b5ab58dc1461013e578063c0da916f1461016a578063f101b3f11461017e578063f644b3bb1461019d575f5ffd5b80634e71d92d1461009257806354c63f82146100a85780637487361f146100bb5780638f7b0961146100ef575f5ffd5b3661008e57005b5f5ffd5b34801561009d575f5ffd5b506100a66101bc565b005b6100a66100b6366004610b65565b6102c2565b3480156100c6575f5ffd5b506100da6100d5366004610c44565b6104ea565b60405190151581526020015b60405180910390f35b3480156100fa575f5ffd5b5061010460035481565b6040519081526020016100e6565b34801561011d575f5ffd5b5061013161012c366004610b65565b610785565b6040516100e69190610cb6565b348015610149575f5ffd5b5061015d610158366004610b65565b610902565b6040516100e69190610d19565b348015610175575f5ffd5b50600154610104565b348015610189575f5ffd5b506100a6610198366004610d32565b610a6a565b3480156101a8575f5ffd5b506101046101b7366004610de9565b610b0e565b5f805b60015481101561023057600281815481106101dc576101dc610e22565b5f9182526020808320338452909101905260409020546101fc9083610e4a565b91505f6002828154811061021257610212610e22565b5f9182526020808320338452909101905260409020556001016101bf565b506040515f908190339084908381818185875af1925050503d805f8114610272576040519150601f19603f3d011682016040523d82523d5f602084013e610277565b606091505b5091509150816102bd5760405162461bcd60e51b815260206004820152600c60248201526b18db185a5b4819985a5b195960a21b60448201526064015b60405180910390fd5b505050565b6102ca610b39565b5f8281526020818152604091829020825160a081019093528054835260018101805491928401916102fa90610e5d565b80601f016020809104026020016040519081016040528092919081815260200182805461032690610e5d565b80156103715780601f1061034857610100808354040283529160200191610371565b820191905f5260205f20905b81548152906001019060200180831161035457829003601f168201915b5050505050815260200160028201805461038a90610e5d565b80601f01602080910402602001604051908101604052809291908181526020018280546103b690610e5d565b80156104015780601f106103d857610100808354040283529160200191610401565b820191905f5260205f20905b8154815290600101906020018083116103e457829003601f168201915b50505050508152602001600382015481526020016004820154815250509050806060015134101561045f5760405162461bcd60e51b8152602060048201526008602482015267626574206d6f726560c01b60448201526064016102b4565b806080015134111561049e5760405162461bcd60e51b8152602060048201526008602482015267626574206c65737360c01b60448201526064016102b4565b3460026104ac600185610e95565b815481106104bc576104bc610e22565b5f918252602080832033845290910190526040812080549091906104e1908490610e4a565b90915550505050565b5f6104f3610b39565b5f8481526020818152604091829020825160a0810190935280548352600181018054919284019161052390610e5d565b80601f016020809104026020016040519081016040528092919081815260200182805461054f90610e5d565b801561059a5780601f106105715761010080835404028352916020019161059a565b820191905f5260205f20905b81548152906001019060200180831161057d57829003601f168201915b505050505081526020016002820180546105b390610e5d565b80601f01602080910402602001604051908101604052809291908181526020018280546105df90610e5d565b801561062a5780601f106106015761010080835404028352916020019161062a565b820191905f5260205f20905b81548152906001019060200180831161060d57829003601f168201915b50505050508152602001600382015481526020016004820154815250509050806040015160405160200161065e9190610ea8565b60405160208183030381529060405280519060200120836040516020016106859190610ea8565b60405160208183030381529060405280519060200120036106f3576002806106ae600187610e95565b815481106106be576106be610e22565b5f918252602080832033845290910190526040812080549091906106e3908490610ebe565b909155506001925061077f915050565b6002610700600186610e95565b8154811061071057610710610e22565b5f9182526020808320338452909101905260408120546003805491929091610739908490610e4a565b909155505f9050600261074d600187610e95565b8154811061075d5761075d610e22565b5f918252602080832033845290910190526040812091909155915061077f9050565b92915050565b61078d610b39565b610795610b39565b5f8381526020818152604091829020825160a081019093528054835260018101805491928401916107c590610e5d565b80601f01602080910402602001604051908101604052809291908181526020018280546107f190610e5d565b801561083c5780601f106108135761010080835404028352916020019161083c565b820191905f5260205f20905b81548152906001019060200180831161081f57829003601f168201915b5050505050815260200160028201805461085590610e5d565b80601f016020809104026020016040519081016040528092919081815260200182805461088190610e5d565b80156108cc5780601f106108a3576101008083540402835291602001916108cc565b820191905f5260205f20905b8154815290600101906020018083116108af57829003601f168201915b50505091835250506003820154602080830191909152600490920154604091820152805191820181525f82528201529392505050565b606061090c610b39565b5f8381526020818152604091829020825160a0810190935280548352600181018054919284019161093c90610e5d565b80601f016020809104026020016040519081016040528092919081815260200182805461096890610e5d565b80156109b35780601f1061098a576101008083540402835291602001916109b3565b820191905f5260205f20905b81548152906001019060200180831161099657829003601f168201915b505050505081526020016002820180546109cc90610e5d565b80601f01602080910402602001604051908101604052809291908181526020018280546109f890610e5d565b8015610a435780601f10610a1a57610100808354040283529160200191610a43565b820191905f5260205f20905b815481529060010190602001808311610a2657829003601f168201915b50505091835250506003820154602082015260049091015460409182015201519392505050565b33600103610aa55760405162461bcd60e51b815260206004820152600860248201526723b79030bbb0bc9760c11b60448201526064016102b4565b80515f9081526020818152604090912082518155908201518291906001820190610acf9082610f20565b5060408201516002820190610ae49082610f20565b50606082015160038201556080909101516004909101555160019081556002805490910181555f52565b60028281548110610b1d575f80fd5b905f5260205f2001602052805f5260405f205f91509150505481565b6040518060a001604052805f815260200160608152602001606081526020015f81526020015f81525090565b5f60208284031215610b75575f5ffd5b5035919050565b634e487b7160e01b5f52604160045260245ffd5b60405160a0810167ffffffffffffffff81118282101715610bb357610bb3610b7c565b60405290565b5f82601f830112610bc8575f5ffd5b813567ffffffffffffffff811115610be257610be2610b7c565b604051601f8201601f19908116603f0116810167ffffffffffffffff81118282101715610c1157610c11610b7c565b604052818152838201602001851015610c28575f5ffd5b816020850160208301375f918101602001919091529392505050565b5f5f60408385031215610c55575f5ffd5b82359150602083013567ffffffffffffffff811115610c72575f5ffd5b610c7e85828601610bb9565b9150509250929050565b5f81518084528060208401602086015e5f602082860101526020601f19601f83011685010191505092915050565b60208152815160208201525f602083015160a06040840152610cdb60c0840182610c88565b90506040840151601f19848303016060850152610cf88282610c88565b91505060608401516080840152608084015160a08401528091505092915050565b602081525f610d2b6020830184610c88565b9392505050565b5f60208284031215610d42575f5ffd5b813567ffffffffffffffff811115610d58575f5ffd5b820160a08185031215610d69575f5ffd5b610d71610b90565b81358152602082013567ffffffffffffffff811115610d8e575f5ffd5b610d9a86828501610bb9565b602083015250604082013567ffffffffffffffff811115610db9575f5ffd5b610dc586828501610bb9565b60408301525060608281013590820152608091820135918101919091529392505050565b5f5f60408385031215610dfa575f5ffd5b8235915060208301356001600160a01b0381168114610e17575f5ffd5b809150509250929050565b634e487b7160e01b5f52603260045260245ffd5b634e487b7160e01b5f52601160045260245ffd5b8082018082111561077f5761077f610e36565b600181811c90821680610e7157607f821691505b602082108103610e8f57634e487b7160e01b5f52602260045260245ffd5b50919050565b8181038181111561077f5761077f610e36565b5f82518060208501845e5f920191825250919050565b808202811582820484141761077f5761077f610e36565b601f8211156102bd57805f5260205f20601f840160051c81016020851015610efa5750805b601f840160051c820191505b81811015610f19575f8155600101610f06565b5050505050565b815167ffffffffffffffff811115610f3a57610f3a610b7c565b610f4e81610f488454610e5d565b84610ed5565b6020601f821160018114610f80575f8315610f695750848201515b5f19600385901b1c1916600184901b178455610f19565b5f84815260208120601f198516915b82811015610faf5787850151825560209485019460019092019101610f8f565b5084821015610fcc57868401515f19600387901b60f8161c191681555b50505050600190811b0190555056fea2646970667358221220e3d926d40e535c453035c46a8f6427db698d9028a1a09cd0051ee9b7da1a626964736f6c634300081c0033","linkReferences":{}},"methodIdentifiers":{"addQuiz((uint256,string,string,uint256,uint256))":"f101b3f1","betToPlay(uint256)":"54c63f82","bets(uint256,address)":"f644b3bb","claim()":"4e71d92d","getAnswer(uint256)":"b5ab58dc","getQuiz(uint256)":"a3f7e096","getQuizNum()":"c0da916f","solveQuiz(uint256,string)":"7487361f","vault_balance()":"8f7b0961"},"id":18}