{"abi":[{"type":"constructor","inputs":[],"stateMutability":"nonpayable"},{"type":"receive","stateMutability":"payable"},{"type":"function","name":"addQuiz","inputs":[{"name":"q","type":"tuple","internalType":"struct Quiz.Quiz_item","components":[{"name":"id","type":"uint256","internalType":"uint256"},{"name":"question","type":"string","internalType":"string"},{"name":"answer","type":"string","internalType":"string"},{"name":"min_bet","type":"uint256","internalType":"uint256"},{"name":"max_bet","type":"uint256","internalType":"uint256"}]}],"outputs":[],"stateMutability":"nonpayable"},{"type":"function","name":"betToPlay","inputs":[{"name":"quizId","type":"uint256","internalType":"uint256"}],"outputs":[],"stateMutability":"payable"},{"type":"function","name":"bets","inputs":[{"name":"","type":"uint256","internalType":"uint256"},{"name":"","type":"address","internalType":"address"}],"outputs":[{"name":"","type":"uint256","internalType":"uint256"}],"stateMutability":"view"},{"type":"function","name":"claim","inputs":[],"outputs":[],"stateMutability":"nonpayable"},{"type":"function","name":"getAnswer","inputs":[{"name":"quizId","type":"uint256","internalType":"uint256"}],"outputs":[{"name":"","type":"string","internalType":"string"}],"stateMutability":"view"},{"type":"function","name":"getQuiz","inputs":[{"name":"quizId","type":"uint256","internalType":"uint256"}],"outputs":[{"name":"","type":"tuple","internalType":"struct Quiz.Quiz_item","components":[{"name":"id","type":"uint256","internalType":"uint256"},{"name":"question","type":"string","internalType":"string"},{"name":"answer","type":"string","internalType":"string"},{"name":"min_bet","type":"uint256","internalType":"uint256"},{"name":"max_bet","type":"uint256","internalType":"uint256"}]}],"stateMutability":"view"},{"type":"function","name":"getQuizNum","inputs":[],"outputs":[{"name":"","type":"uint256","internalType":"uint256"}],"stateMutability":"view"},{"type":"function","name":"solveQuiz","inputs":[{"name":"quizId","type":"uint256","internalType":"uint256"},{"name":"ans","type":"string","internalType":"string"}],"outputs":[{"name":"","type":"bool","internalType":"bool"}],"stateMutability":"nonpayable"},{"type":"function","name":"vault_balance","inputs":[],"outputs":[{"name":"","type":"uint256","internalType":"uint256"}],"stateMutability":"view"}],"bytecode":{"object":"0x60806040525f600155348015610013575f5ffd5b506100436040518060a001604052805f815260200160608152602001606081526020015f81526020015f81525090565b60018082526040805180820182526005815264312b313d3f60d81b6020808301919091528085019190915281518083018352928352601960f91b90830152820152670de0b6b3a76400006060820152671bc16d674ec8000060808201526100a9816100ba565b506002805460010181555f526102b4565b336001036100f95760405162461bcd60e51b815260206004820152600860248201526723b79030bbb0bc9760c11b604482015260640160405180910390fd5b80515f908152602081815260409091208251815590820151829190600182019061012390826101fa565b506040820151600282019061013890826101fa565b50606082015160038201556080909101516004909101555160019081556002805490910181555f52565b634e487b7160e01b5f52604160045260245ffd5b600181811c9082168061018a57607f821691505b6020821081036101a857634e487b7160e01b5f52602260045260245ffd5b50919050565b601f8211156101f557805f5260205f20601f840160051c810160208510156101d35750805b601f840160051c820191505b818110156101f2575f81556001016101df565b50505b505050565b81516001600160401b0381111561021357610213610162565b610227816102218454610176565b846101ae565b6020601f821160018114610259575f83156102425750848201515b5f19600385901b1c1916600184901b1784556101f2565b5f84815260208120601f198516915b828110156102885787850151825560209485019460019092019101610268565b50848210156102a557868401515f19600387901b60f8161c191681555b50505050600190811b01905550565b610fce806102c15f395ff3fe608060405260043610610087575f3560e01c8063a3f7e09611610057578063a3f7e09614610112578063b5ab58dc1461013e578063c0da916f1461016a578063f101b3f11461017e578063f644b3bb1461019d575f5ffd5b80634e71d92d1461009257806354c63f82146100a85780637487361f146100bb5780638f7b0961146100ef575f5ffd5b3661008e57005b5f5ffd5b34801561009d575f5ffd5b506100a66101bc565b005b6100a66100b6366004610b1d565b6102a1565b3480156100c6575f5ffd5b506100da6100d5366004610bfc565b6104bf565b60405190151581526020015b60405180910390f35b3480156100fa575f5ffd5b5061010460035481565b6040519081526020016100e6565b34801561011d575f5ffd5b5061013161012c366004610b1d565b61073d565b6040516100e69190610c6e565b348015610149575f5ffd5b5061015d610158366004610b1d565b6108ba565b6040516100e69190610cd1565b348015610175575f5ffd5b50600154610104565b348015610189575f5ffd5b506100a6610198366004610cea565b610a22565b3480156101a8575f5ffd5b506101046101b7366004610da1565b610ac6565b5f805b600154811161020f57600281815481106101db576101db610dda565b5f9182526020808320338452909101905260409020546101fb9083610e02565b91508061020781610e15565b9150506101bf565b506040515f908190339084908381818185875af1925050503d805f8114610251576040519150601f19603f3d011682016040523d82523d5f602084013e610256565b606091505b50915091508161029c5760405162461bcd60e51b815260206004820152600c60248201526b18db185a5b4819985a5b195960a21b60448201526064015b60405180910390fd5b505050565b6102a9610af1565b5f8281526020818152604091829020825160a081019093528054835260018101805491928401916102d990610e2d565b80601f016020809104026020016040519081016040528092919081815260200182805461030590610e2d565b80156103505780601f1061032757610100808354040283529160200191610350565b820191905f5260205f20905b81548152906001019060200180831161033357829003601f168201915b5050505050815260200160028201805461036990610e2d565b80601f016020809104026020016040519081016040528092919081815260200182805461039590610e2d565b80156103e05780601f106103b7576101008083540402835291602001916103e0565b820191905f5260205f20905b8154815290600101906020018083116103c357829003601f168201915b50505050508152602001600382015481526020016004820154815250509050806060015134101561043e5760405162461bcd60e51b8152602060048201526008602482015267626574206d6f726560c01b6044820152606401610293565b806080015134111561047d5760405162461bcd60e51b8152602060048201526008602482015267626574206c65737360c01b6044820152606401610293565b346002838154811061049157610491610dda565b5f918252602080832033845290910190526040812080549091906104b6908490610e02565b90915550505050565b5f6104c8610af1565b5f8481526020818152604091829020825160a081019093528054835260018101805491928401916104f890610e2d565b80601f016020809104026020016040519081016040528092919081815260200182805461052490610e2d565b801561056f5780601f106105465761010080835404028352916020019161056f565b820191905f5260205f20905b81548152906001019060200180831161055257829003601f168201915b5050505050815260200160028201805461058890610e2d565b80601f01602080910402602001604051908101604052809291908181526020018280546105b490610e2d565b80156105ff5780601f106105d6576101008083540402835291602001916105ff565b820191905f5260205f20905b8154815290600101906020018083116105e257829003601f168201915b5050505050815260200160038201548152602001600482015481525050905080604001516040516020016106339190610e65565b604051602081830303815290604052805190602001208360405160200161065a9190610e65565b60405160208183030381529060405280519060200120036106be57600280858154811061068957610689610dda565b5f918252602080832033845290910190526040812080549091906106ae908490610e7b565b9091555060019250610737915050565b600284815481106106d1576106d1610dda565b5f91825260208083203384529091019052604081205460038054919290916106fa908490610e02565b925050819055505f6002858154811061071557610715610dda565b5f91825260208083203384529091019052604081209190915591506107379050565b92915050565b610745610af1565b61074d610af1565b5f8381526020818152604091829020825160a0810190935280548352600181018054919284019161077d90610e2d565b80601f01602080910402602001604051908101604052809291908181526020018280546107a990610e2d565b80156107f45780601f106107cb576101008083540402835291602001916107f4565b820191905f5260205f20905b8154815290600101906020018083116107d757829003601f168201915b5050505050815260200160028201805461080d90610e2d565b80601f016020809104026020016040519081016040528092919081815260200182805461083990610e2d565b80156108845780601f1061085b57610100808354040283529160200191610884565b820191905f5260205f20905b81548152906001019060200180831161086757829003601f168201915b50505091835250506003820154602080830191909152600490920154604091820152805191820181525f82528201529392505050565b60606108c4610af1565b5f8381526020818152604091829020825160a081019093528054835260018101805491928401916108f490610e2d565b80601f016020809104026020016040519081016040528092919081815260200182805461092090610e2d565b801561096b5780601f106109425761010080835404028352916020019161096b565b820191905f5260205f20905b81548152906001019060200180831161094e57829003601f168201915b5050505050815260200160028201805461098490610e2d565b80601f01602080910402602001604051908101604052809291908181526020018280546109b090610e2d565b80156109fb5780601f106109d2576101008083540402835291602001916109fb565b820191905f5260205f20905b8154815290600101906020018083116109de57829003601f168201915b50505091835250506003820154602082015260049091015460409182015201519392505050565b33600103610a5d5760405162461bcd60e51b815260206004820152600860248201526723b79030bbb0bc9760c11b6044820152606401610293565b80515f9081526020818152604090912082518155908201518291906001820190610a879082610edd565b5060408201516002820190610a9c9082610edd565b50606082015160038201556080909101516004909101555160019081556002805490910181555f52565b60028281548110610ad5575f80fd5b905f5260205f2001602052805f5260405f205f91509150505481565b6040518060a001604052805f815260200160608152602001606081526020015f81526020015f81525090565b5f60208284031215610b2d575f5ffd5b5035919050565b634e487b7160e01b5f52604160045260245ffd5b60405160a0810167ffffffffffffffff81118282101715610b6b57610b6b610b34565b60405290565b5f82601f830112610b80575f5ffd5b813567ffffffffffffffff811115610b9a57610b9a610b34565b604051601f8201601f19908116603f0116810167ffffffffffffffff81118282101715610bc957610bc9610b34565b604052818152838201602001851015610be0575f5ffd5b816020850160208301375f918101602001919091529392505050565b5f5f60408385031215610c0d575f5ffd5b82359150602083013567ffffffffffffffff811115610c2a575f5ffd5b610c3685828601610b71565b9150509250929050565b5f81518084528060208401602086015e5f602082860101526020601f19601f83011685010191505092915050565b60208152815160208201525f602083015160a06040840152610c9360c0840182610c40565b90506040840151601f19848303016060850152610cb08282610c40565b91505060608401516080840152608084015160a08401528091505092915050565b602081525f610ce36020830184610c40565b9392505050565b5f60208284031215610cfa575f5ffd5b813567ffffffffffffffff811115610d10575f5ffd5b820160a08185031215610d21575f5ffd5b610d29610b48565b81358152602082013567ffffffffffffffff811115610d46575f5ffd5b610d5286828501610b71565b602083015250604082013567ffffffffffffffff811115610d71575f5ffd5b610d7d86828501610b71565b60408301525060608281013590820152608091820135918101919091529392505050565b5f5f60408385031215610db2575f5ffd5b8235915060208301356001600160a01b0381168114610dcf575f5ffd5b809150509250929050565b634e487b7160e01b5f52603260045260245ffd5b634e487b7160e01b5f52601160045260245ffd5b8082018082111561073757610737610dee565b5f60018201610e2657610e26610dee565b5060010190565b600181811c90821680610e4157607f821691505b602082108103610e5f57634e487b7160e01b5f52602260045260245ffd5b50919050565b5f82518060208501845e5f920191825250919050565b808202811582820484141761073757610737610dee565b601f82111561029c57805f5260205f20601f840160051c81016020851015610eb75750805b601f840160051c820191505b81811015610ed6575f8155600101610ec3565b5050505050565b815167ffffffffffffffff811115610ef757610ef7610b34565b610f0b81610f058454610e2d565b84610e92565b6020601f821160018114610f3d575f8315610f265750848201515b5f19600385901b1c1916600184901b178455610ed6565b5f84815260208120601f198516915b82811015610f6c5787850151825560209485019460019092019101610f4c565b5084821015610f8957868401515f19600387901b60f8161c191681555b50505050600190811b0190555056fea264697066735822122051d9061299eed6164759546362b7f864dc4b6f818c01cbd20eb5511b93ca45e864736f6c634300081c0033","linkReferences":{}},"methodIdentifiers":{"addQuiz((uint256,string,string,uint256,uint256))":"f101b3f1","betToPlay(uint256)":"54c63f82","bets(uint256,address)":"f644b3bb","claim()":"4e71d92d","getAnswer(uint256)":"b5ab58dc","getQuiz(uint256)":"a3f7e096","getQuizNum()":"c0da916f","solveQuiz(uint256,string)":"7487361f","vault_balance()":"8f7b0961"},"id":18}